S0120000507261637469636131302E737265638A
S113000071C000008EC000008CC000008AC00000D7
S113001088C0000086C0000084C0000082C00000C8
S113002080C000007EC000007CC000007AC00000D8
S113003078C0000076C0000074C0000072C00000E8
S113004070C000006EC000006CC000006AC00000F8
S113005068C0000073C0000064C0000062C00000FB
S113006060C000005EC000005CC000005AC0000018
S113007058C0000056C0000054C0000052C0000028
S113008050C000004EC000004CC000004AC0000038
S113009048C0000046C0000044C0000042C0000048
S11300A040C000003EC000003CC000003AC0000058
S11300B038C0000036C0000034C0000032C0000068
S11300C030C000002EC000002CC000002AC0000078
S11300D028C0000026C0000024C0000022C0000088
S11300E020C0000011241FBECFEFD1E2DEBFCDBF80
S11300F000E00CBF13E0A0E0B2E0E4E0F2E000E0D6
S11301000BBF02C007900D92A831B107D9F723E0C5
S1130110A8E1B3E001C01D92AB31B207E1F757D0BB
S11301206FC06ECF16BC82E084BD93E095BD99EF9D
S113013097BD85BB80936E00789408951F920F92AB
S11301400FB60F9211242F938F939F9380911803CE
S1130150909119030196883E23E0920729F0909329
S113016019038093180309C01092190310921803FD
S113017080911A038F5F80931A039F918F912F911F
S11301800F900FBE0F901F9018950895089582E068
S11301908093C00098E19093C10096E09093C200D0
S11301A014BC85BD6099FECF16BC609BFECF15BC08
S11301B086B590E001979093C5008093C40008959C
S11301C08091C00085FD02C085E008950895DFDFB9
S11301D0A9DFF6DF863559F018F4803559F0F9CFE8
S11301E0803741F08637A9F78FEFD0DFF2CF81E077
S11301F0CDDFEFCF66E470E080E092E0C6DFE9CFC8
S1070200F894FFCF9C
S1130204B801F401B801F401B801F4015D01770106
S11302140B027D00B801F4015D0177010B027D003E
S1130224B801E8039302F4019302F4019302F40184
S1130234BA0277010B027D009F01F4015D0177018D
S11302440B027D00B801E8037003F401B8017701DF
S1130254B8017D007003F4013E03FA001003FA00B0
S1130264E4027D00BA027D00E402FA000000FA0010
S1130274C701FA006E02F4014B02FA002A02FA00E2
S11302840B027D00D2017D000B02FA000000FA008B
S11302945D017D009F01F4015D017701B8017D00DA
S11302A40B02F401B80177010B027D009302E80309
S11302B47003F401B8017701B8017D007003F401FF
S11302C43E03FA001003FA00E4027D00BA027D0042
S11302D4E402FA000000FA00C701FA006E02F40115
S11302E44B02FA002A02FA000B027D00D2017D00BF
S11302F40B02FA000000FA005D01FA009F01F40108
S11303045D0177010B027D00B801F4015D01770101
S10B031405017D00B801E803B6
S9030000FC
